BL51 BANKED LINKER/LOCATER V6.22                                                        01/02/2017  00:29:01  PAGE 1


BL51 BANKED LINKER/LOCATER V6.22, INVOKED BY:
C:\KEIL_V5\C51\BIN\BL51.EXE .\Objects\STARTUP.obj, .\Objects\clock.obj TO .\Objects\d3 PRINT (.\Listings\d3.m51) RAMSIZE
>>  (256)


MEMORY MODEL: SMALL


INPUT MODULES INCLUDED:
  .\Objects\STARTUP.obj (?C_STARTUP)
  .\Objects\clock.obj (CLOCK)
  C:\KEIL_V5\C51\LIB\C51S.LIB (?C_INIT)
  C:\KEIL_V5\C51\LIB\C51S.LIB (?C?IMUL)
  C:\KEIL_V5\C51\LIB\C51S.LIB (?C?UIDIV)


LINK MAP OF MODULE:  .\Objects\d3 (?C_STARTUP)


            TYPE    BASE      LENGTH    RELOCATION   SEGMENT NAME
            -----------------------------------------------------

            * * * * * * *   D A T A   M E M O R Y   * * * * * * *
            REG     0000H     0008H     ABSOLUTE     "REG BANK 0"
            DATA    0008H     0013H     UNIT         ?DT?CLOCK
            DATA    001BH     0005H     UNIT         _DATA_GROUP_
            BIT     0020H.0   0000H.1   UNIT         _BIT_GROUP_
                    0020H.1   0000H.7                *** GAP ***
            IDATA   0021H     0001H     UNIT         ?STACK

            * * * * * * *   C O D E   M E M O R Y   * * * * * * *
            CODE    0000H     0003H     ABSOLUTE     
                    0003H     0008H                  *** GAP ***
            CODE    000BH     0003H     ABSOLUTE     
                    000EH     000DH                  *** GAP ***
            CODE    001BH     0003H     ABSOLUTE     
                    001EH     07E2H                  *** GAP ***
            CODE    0800H     00EFH     UNIT         ?PR?T0_ISR?CLOCK
            CODE    08EFH     008CH     UNIT         ?C_C51STARTUP
            CODE    097BH     0067H     UNIT         ?C?LIB_CODE
            CODE    09E2H     0059H     UNIT         ?PR?KEYPAD?CLOCK
            CODE    0A3BH     0047H     UNIT         ?PR?_DS1307_GET?CLOCK
            CODE    0A82H     003AH     UNIT         ?PR?MAIN?CLOCK
            CODE    0ABCH     0039H     UNIT         ?PR?FIX_TIME?CLOCK
            CODE    0AF5H     0030H     UNIT         ?PR?_DS1307_WRITE?CLOCK
            CODE    0B25H     002CH     UNIT         ?PR?T1_ISR?CLOCK
            CODE    0B51H     0029H     UNIT         ?PR?I2C_READ?CLOCK
            CODE    0B7AH     001EH     UNIT         ?PR?_I2C_WRITE?CLOCK
            CODE    0B98H     001EH     UNIT         ?PR?SETUP_TIMER?CLOCK
            CODE    0BB6H     0017H     UNIT         ?PR?I2C_START?CLOCK
            CODE    0BCDH     0011H     UNIT         ?PR?_DELAY?CLOCK
            CODE    0BDEH     000FH     UNIT         ?PR?I2C_STOP?CLOCK
            CODE    0BEDH     000DH     UNIT         ?C_INITSEG
            CODE    0BFAH     000CH     UNIT         ?PR?SET_MAIN?CLOCK



OVERLAY MAP OF MODULE:   .\Objects\d3 (?C_STARTUP)
BL51 BANKED LINKER/LOCATER V6.22                                                      01/02/2017  00:29:01  PAGE 2




SEGMENT                            BIT_GROUP          DATA_GROUP 
  +--> CALLED SEGMENT           START    LENGTH     START    LENGTH
-------------------------------------------------------------------
?C_C51STARTUP                   -----    -----      -----    -----
  +--> ?PR?MAIN?CLOCK
  +--> ?C_INITSEG

?PR?MAIN?CLOCK                  -----    -----      -----    -----
  +--> ?PR?SET_MAIN?CLOCK
  +--> ?PR?SETUP_TIMER?CLOCK
  +--> ?PR?KEYPAD?CLOCK
  +--> ?PR?_DS1307_GET?CLOCK

?PR?KEYPAD?CLOCK                -----    -----      -----    -----
  +--> ?PR?_DS1307_WRITE?CLOCK
  +--> ?PR?FIX_TIME?CLOCK
  +--> ?PR?_DELAY?CLOCK

?PR?_DS1307_WRITE?CLOCK         -----    -----      001BH    0002H
  +--> ?PR?I2C_START?CLOCK
  +--> ?PR?_I2C_WRITE?CLOCK
  +--> ?PR?I2C_STOP?CLOCK

?PR?I2C_START?CLOCK             -----    -----      -----    -----
  +--> ?PR?_DELAY?CLOCK

?PR?_I2C_WRITE?CLOCK            -----    -----      -----    -----
  +--> ?PR?_DELAY?CLOCK

?PR?I2C_STOP?CLOCK              -----    -----      -----    -----
  +--> ?PR?_DELAY?CLOCK

?PR?_DS1307_GET?CLOCK           -----    -----      001BH    0003H
  +--> ?PR?I2C_START?CLOCK
  +--> ?PR?_I2C_WRITE?CLOCK
  +--> ?PR?I2C_READ?CLOCK
  +--> ?PR?I2C_STOP?CLOCK

?PR?I2C_READ?CLOCK              0020H.0  0000H.1    001EH    0002H
  +--> ?PR?_DELAY?CLOCK



SYMBOL TABLE OF MODULE:  .\Objects\d3 (?C_STARTUP)

  VALUE           TYPE          NAME
  ----------------------------------

  -------         MODULE        ?C_STARTUP
  C:08EFH         SEGMENT       ?C_C51STARTUP
  I:0021H         SEGMENT       ?STACK
  C:0000H         PUBLIC        ?C_STARTUP
  D:00E0H         SYMBOL        ACC
  D:00F0H         SYMBOL        B
  D:0083H         SYMBOL        DPH
BL51 BANKED LINKER/LOCATER V6.22                                                      01/02/2017  00:29:01  PAGE 3


  D:0082H         SYMBOL        DPL
  N:0000H         SYMBOL        IBPSTACK
  N:0100H         SYMBOL        IBPSTACKTOP
  N:0080H         SYMBOL        IDATALEN
  C:08F2H         SYMBOL        IDATALOOP
  N:0000H         SYMBOL        PBPSTACK
  N:0100H         SYMBOL        PBPSTACKTOP
  N:0000H         SYMBOL        PDATALEN
  N:0000H         SYMBOL        PDATASTART
  N:0000H         SYMBOL        PPAGE
  N:0000H         SYMBOL        PPAGEENABLE
  D:00A0H         SYMBOL        PPAGE_SFR
  D:0081H         SYMBOL        SP
  C:08EFH         SYMBOL        STARTUP1
  N:0000H         SYMBOL        XBPSTACK
  N:0000H         SYMBOL        XBPSTACKTOP
  N:0000H         SYMBOL        XDATALEN
  N:0000H         SYMBOL        XDATASTART
  C:0000H         LINE#         126
  C:08EFH         LINE#         133
  C:08F1H         LINE#         134
  C:08F2H         LINE#         135
  C:08F3H         LINE#         136
  C:08F5H         LINE#         185
  C:08F8H         LINE#         196
  -------         ENDMOD        ?C_STARTUP

  -------         MODULE        CLOCK
  C:0000H         SYMBOL        _ICE_DUMMY_
  D:0080H         PUBLIC        P0
  D:0090H         PUBLIC        P1
  D:00A0H         PUBLIC        P2
  D:00B0H         PUBLIC        P3
  C:0A3BH         PUBLIC        _DS1307_get
  B:00A8H.7       PUBLIC        EA
  B:0090H.0       PUBLIC        P1_0
  C:0BD3H         PUBLIC        _delay
  D:0008H         PUBLIC        t_view
  B:0090H.1       PUBLIC        P1_1
  D:0009H         PUBLIC        get_t
  B:00B0H.4       PUBLIC        P3_4
  B:00B0H.5       PUBLIC        P3_5
  B:00B0H.6       PUBLIC        P3_6
  D:000AH         PUBLIC        index
  C:0A82H         PUBLIC        main
  D:000BH         PUBLIC        time
  D:0089H         PUBLIC        TMOD
  C:0B98H         PUBLIC        setup_timer
  C:0ABCH         PUBLIC        Fix_time
  D:000CH         PUBLIC        sec
  C:0B51H         PUBLIC        I2C_read
  D:000DH         PUBLIC        hour
  D:000EH         PUBLIC        min
  B:00A8H.1       PUBLIC        ET0
  B:00A8H.3       PUBLIC        ET1
  B:0088H.5       PUBLIC        TF0
  B:0088H.7       PUBLIC        TF1
BL51 BANKED LINKER/LOCATER V6.22                                                      01/02/2017  00:29:01  PAGE 4


  D:008CH         PUBLIC        TH0
  C:0B7AH         PUBLIC        _I2C_write
  D:008DH         PUBLIC        TH1
  C:0BB6H         PUBLIC        I2C_start
  D:008AH         PUBLIC        TL0
  D:008BH         PUBLIC        TL1
  C:0AF5H         PUBLIC        _DS1307_Write
  C:0800H         PUBLIC        T0_ISR
  C:0B25H         PUBLIC        T1_ISR
  D:000FH         PUBLIC        B_nhay
  C:0BFAH         PUBLIC        set_main
  B:0088H.4       PUBLIC        TR0
  B:0088H.6       PUBLIC        TR1
  C:09E2H         PUBLIC        Keypad
  C:0BDEH         PUBLIC        I2C_stop
  D:0010H         PUBLIC        led7_data
  D:001AH         PUBLIC        F_set
  -------         PROC          I2C_START
  C:0BB6H         LINE#         39
  C:0BB6H         LINE#         40
  C:0BB6H         LINE#         41
  C:0BBAH         LINE#         42
  C:0BBCH         LINE#         43
  C:0BBFH         LINE#         44
  C:0BC4H         LINE#         45
  -------         ENDPROC       I2C_START
  -------         PROC          I2C_STOP
  C:0BDEH         LINE#         47
  C:0BDEH         LINE#         48
  C:0BDEH         LINE#         49
  C:0BE2H         LINE#         50
  C:0BE7H         LINE#         51
  C:0BEAH         LINE#         52
  C:0BECH         LINE#         53
  -------         ENDPROC       I2C_STOP
  -------         PROC          _I2C_WRITE
  D:0007H         SYMBOL        dat
  -------         DO            
  D:0006H         SYMBOL        i
  -------         ENDDO         
  C:0B7AH         LINE#         54
  C:0B7AH         LINE#         55
  C:0B7AH         LINE#         57
  C:0B7CH         LINE#         58
  C:0B7CH         LINE#         59
  C:0B86H         LINE#         60
  C:0B8AH         LINE#         61
  C:0B8EH         LINE#         62
  C:0B92H         LINE#         63
  C:0B95H         LINE#         64
  C:0B97H         LINE#         65
  -------         ENDPROC       _I2C_WRITE
  -------         PROC          I2C_READ
  -------         DO            
  B:0020H.0       SYMBOL        rd_bit
  D:001EH         SYMBOL        i
  D:001FH         SYMBOL        dat
BL51 BANKED LINKER/LOCATER V6.22                                                      01/02/2017  00:29:01  PAGE 5


  -------         ENDDO         
  C:0B51H         LINE#         66
  C:0B51H         LINE#         67
  C:0B51H         LINE#         70
  C:0B54H         LINE#         71
  C:0B56H         LINE#         72
  C:0B56H         LINE#         73
  C:0B59H         LINE#         74
  C:0B59H         LINE#         75
  C:0B5CH         LINE#         76
  C:0B60H         LINE#         77
  C:0B66H         LINE#         78
  C:0B6CH         LINE#         79
  C:0B6EH         LINE#         80
  C:0B77H         LINE#         81
  C:0B79H         LINE#         82
  -------         ENDPROC       I2C_READ
  -------         PROC          _DS1307_GET
  D:001BH         SYMBOL        addr
  -------         DO            
  D:0002H         SYMBOL        temp
  D:001CH         SYMBOL        ret
  -------         ENDDO         
  C:0A3BH         LINE#         87
  C:0A3DH         LINE#         88
  C:0A3DH         LINE#         90
  C:0A40H         LINE#         91
  C:0A45H         LINE#         92
  C:0A4AH         LINE#         93
  C:0A4DH         LINE#         94
  C:0A52H         LINE#         95
  C:0A5AH         LINE#         96
  C:0A5DH         LINE#         98
  C:0A5DH         LINE#         99
  C:0A7FH         LINE#         101
  C:0A81H         LINE#         102
  -------         ENDPROC       _DS1307_GET
  -------         PROC          _DS1307_WRITE
  D:001BH         SYMBOL        addr
  D:001CH         SYMBOL        dat
  -------         DO            
  D:0006H         SYMBOL        temp
  -------         ENDDO         
  C:0AF5H         LINE#         104
  C:0AF9H         LINE#         105
  C:0AF9H         LINE#         108
  C:0AFDH         LINE#         109
  C:0B10H         LINE#         111
  C:0B13H         LINE#         112
  C:0B18H         LINE#         113
  C:0B1DH         LINE#         114
  C:0B22H         LINE#         115
  -------         ENDPROC       _DS1307_WRITE
  C:0BCDH         SYMBOL        L?0062
  C:0BCFH         SYMBOL        L?0063
  -------         PROC          L?0061
  -------         ENDPROC       L?0061
BL51 BANKED LINKER/LOCATER V6.22                                                      01/02/2017  00:29:01  PAGE 6


  C:0BCDH         SYMBOL        L?0062
  C:0BCFH         SYMBOL        L?0063
  -------         PROC          _DELAY
  D:0006H         SYMBOL        time
  C:0BD3H         LINE#         119
  C:0BD3H         LINE#         120
  -------         ENDPROC       _DELAY
  -------         PROC          SET_MAIN
  C:0BFAH         LINE#         121
  C:0BFAH         LINE#         122
  C:0BFAH         LINE#         123
  C:0BFDH         LINE#         124
  C:0C00H         LINE#         125
  C:0C02H         LINE#         126
  C:0C05H         LINE#         127
  -------         ENDPROC       SET_MAIN
  -------         PROC          SETUP_TIMER
  C:0B98H         LINE#         128
  C:0B98H         LINE#         129
  C:0B98H         LINE#         130
  C:0B9BH         LINE#         131
  C:0BA1H         LINE#         132
  C:0BA7H         LINE#         133
  C:0BADH         LINE#         134
  C:0BB5H         LINE#         135
  -------         ENDPROC       SETUP_TIMER
  -------         PROC          FIX_TIME
  C:0ABCH         LINE#         136
  C:0ABCH         LINE#         137
  C:0ABCH         LINE#         139
  C:0AC6H         LINE#         140
  C:0AD0H         LINE#         141
  C:0AD8H         LINE#         143
  C:0AE2H         LINE#         144
  C:0AECH         LINE#         145
  C:0AF4H         LINE#         146
  -------         ENDPROC       FIX_TIME
  -------         PROC          KEYPAD
  C:09E2H         LINE#         147
  C:09E2H         LINE#         148
  C:09E2H         LINE#         149
  C:09E5H         LINE#         150
  C:09E7H         LINE#         151
  C:09EFH         LINE#         152
  C:09F6H         LINE#         153
  C:09FDH         LINE#         154
  C:0A04H         LINE#         155
  C:0A04H         LINE#         156
  C:0A09H         LINE#         157
  C:0A0EH         LINE#         158
  C:0A13H         LINE#         159
  C:0A13H         LINE#         160
  C:0A18H         LINE#         161
  C:0A1DH         LINE#         162
  C:0A22H         LINE#         163
  C:0A22H         LINE#         164
  C:0A27H         LINE#         165
BL51 BANKED LINKER/LOCATER V6.22                                                      01/02/2017  00:29:01  PAGE 7


  C:0A2CH         LINE#         166
  C:0A31H         LINE#         167
  C:0A31H         LINE#         168
  C:0A34H         LINE#         169
  -------         ENDPROC       KEYPAD
  -------         PROC          T1_ISR
  C:0B25H         LINE#         171
  C:0B29H         LINE#         173
  C:0B2BH         LINE#         174
  C:0B2DH         LINE#         175
  C:0B30H         LINE#         176
  C:0B33H         LINE#         177
  C:0B35H         LINE#         178
  C:0B3AH         LINE#         179
  C:0B42H         LINE#         180
  C:0B47H         LINE#         181
  C:0B4AH         LINE#         182
  C:0B4AH         LINE#         183
  C:0B4CH         LINE#         184
  -------         ENDPROC       T1_ISR
  -------         PROC          T0_ISR
  C:0800H         LINE#         186
  C:080BH         LINE#         188
  C:080DH         LINE#         189
  C:080FH         LINE#         190
  C:0812H         LINE#         191
  C:0815H         LINE#         192
  C:0817H         LINE#         194
  C:081DH         LINE#         195
  C:081DH         LINE#         196
  C:082DH         LINE#         198
  C:082DH         LINE#         199
  C:0830H         LINE#         200
  C:0833H         LINE#         201
  C:0836H         LINE#         202
  C:0844H         LINE#         204
  C:0849H         LINE#         205
  C:0849H         LINE#         206
  C:084CH         LINE#         207
  C:084FH         LINE#         208
  C:085BH         LINE#         210
  C:0861H         LINE#         211
  C:0871H         LINE#         213
  C:0874H         LINE#         214
  C:0877H         LINE#         215
  C:087AH         LINE#         216
  C:0888H         LINE#         218
  C:088DH         LINE#         219
  C:0890H         LINE#         220
  C:0893H         LINE#         221
  C:089FH         LINE#         223
  C:08A4H         LINE#         224
  C:08B3H         LINE#         226
  C:08B6H         LINE#         227
  C:08B9H         LINE#         228
  C:08BCH         LINE#         229
  C:08CAH         LINE#         231
BL51 BANKED LINKER/LOCATER V6.22                                                      01/02/2017  00:29:01  PAGE 8


  C:08CFH         LINE#         232
  C:08D2H         LINE#         233
  C:08D5H         LINE#         234
  C:08E1H         LINE#         235
  C:08E4H         LINE#         236
  C:08E6H         LINE#         237
  -------         ENDPROC       T0_ISR
  -------         PROC          MAIN
  C:0A82H         LINE#         239
  C:0A82H         LINE#         240
  C:0A82H         LINE#         241
  C:0A85H         LINE#         242
  C:0A8AH         LINE#         243
  C:0A8CH         LINE#         244
  C:0A8EH         LINE#         245
  C:0A90H         LINE#         246
  C:0A92H         LINE#         247
  C:0A94H         LINE#         248
  C:0A97H         LINE#         249
  C:0A97H         LINE#         250
  C:0A97H         LINE#         251
  C:0A9AH         LINE#         253
  C:0A9EH         LINE#         254
  C:0A9EH         LINE#         255
  C:0AA3H         LINE#         256
  C:0AA3H         LINE#         257
  C:0AA6H         LINE#         258
  C:0AACH         LINE#         259
  C:0AB3H         LINE#         260
  C:0ABAH         LINE#         262
  C:0ABAH         LINE#         263
  C:0ABAH         LINE#         264
  -------         ENDPROC       MAIN
  -------         ENDMOD        CLOCK

  -------         MODULE        ?C?IMUL
  C:097BH         PUBLIC        ?C?IMUL
  -------         ENDMOD        ?C?IMUL

  -------         MODULE        ?C?UIDIV
  C:098DH         PUBLIC        ?C?UIDIV
  -------         ENDMOD        ?C?UIDIV

******************************************************************************
* RESTRICTED VERSION WITH 0800H BYTE CODE SIZE LIMIT; USED: 0327H BYTE (39%) *
******************************************************************************

Program Size: data=33.1 xdata=0 code=1039
LINK/LOCATE RUN COMPLETE.  0 WARNING(S),  0 ERROR(S)
